{
  "_format": "hh-sol-artifact-1",
  "contractName": "MarketMakingStrategy",
  "sourceName": "contracts/MarketMakingStrategy.sol",
  "abi": [
    {
      "inputs": [
        {
          "internalType": "string",
          "name": "_nativeToken",
          "type": "string"
        },
        {
          "internalType": "address",
          "name": "_erc20ContractAddress1",
          "type": "address"
        },
        {
          "internalType": "address",
          "name": "_erc20ContractAddress2",
          "type": "address"
        }
      ],
      "stateMutability": "nonpayable",
      "type": "constructor"
    },
    {
      "anonymous": false,
      "inputs": [
        {
          "indexed": false,
          "internalType": "uint256",
          "name": "amount",
          "type": "uint256"
        },
        {
          "indexed": false,
          "internalType": "uint256",
          "name": "when",
          "type": "uint256"
        },
        {
          "indexed": false,
          "internalType": "address",
          "name": "from",
          "type": "address"
        }
      ],
      "name": "Claim",
      "type": "event"
    },
    {
      "anonymous": false,
      "inputs": [
        {
          "indexed": false,
          "internalType": "uint256",
          "name": "amount",
          "type": "uint256"
        },
        {
          "indexed": false,
          "internalType": "uint256",
          "name": "when",
          "type": "uint256"
        },
        {
          "indexed": false,
          "internalType": "address",
          "name": "from",
          "type": "address"
        }
      ],
      "name": "Deposit",
      "type": "event"
    },
    {
      "anonymous": false,
      "inputs": [
        {
          "indexed": true,
          "internalType": "address",
          "name": "previousOwner",
          "type": "address"
        },
        {
          "indexed": true,
          "internalType": "address",
          "name": "newOwner",
          "type": "address"
        }
      ],
      "name": "OwnershipTransferred",
      "type": "event"
    },
    {
      "inputs": [],
      "name": "balance",
      "outputs": [
        {
          "internalType": "uint256",
          "name": "",
          "type": "uint256"
        }
      ],
      "stateMutability": "view",
      "type": "function"
    },
    {
      "inputs": [],
      "name": "claim",
      "outputs": [
        {
          "internalType": "bool",
          "name": "",
          "type": "bool"
        }
      ],
      "stateMutability": "nonpayable",
      "type": "function"
    },
    {
      "inputs": [
        {
          "internalType": "uint256",
          "name": "amount",
          "type": "uint256"
        },
        {
          "internalType": "string",
          "name": "tokenSymbol",
          "type": "string"
        }
      ],
      "name": "deposit",
      "outputs": [
        {
          "internalType": "bool",
          "name": "",
          "type": "bool"
        }
      ],
      "stateMutability": "payable",
      "type": "function"
    },
    {
      "inputs": [
        {
          "internalType": "string",
          "name": "",
          "type": "string"
        }
      ],
      "name": "depositPool",
      "outputs": [
        {
          "internalType": "uint256",
          "name": "",
          "type": "uint256"
        }
      ],
      "stateMutability": "view",
      "type": "function"
    },
    {
      "inputs": [],
      "name": "owner",
      "outputs": [
        {
          "internalType": "address",
          "name": "",
          "type": "address"
        }
      ],
      "stateMutability": "view",
      "type": "function"
    },
    {
      "inputs": [
        {
          "internalType": "address",
          "name": "",
          "type": "address"
        }
      ],
      "name": "participants",
      "outputs": [
        {
          "internalType": "uint256",
          "name": "amount",
          "type": "uint256"
        },
        {
          "internalType": "string",
          "name": "token",
          "type": "string"
        }
      ],
      "stateMutability": "view",
      "type": "function"
    },
    {
      "inputs": [],
      "name": "renounceOwnership",
      "outputs": [],
      "stateMutability": "nonpayable",
      "type": "function"
    },
    {
      "inputs": [],
      "name": "start",
      "outputs": [
        {
          "internalType": "string",
          "name": "",
          "type": "string"
        }
      ],
      "stateMutability": "nonpayable",
      "type": "function"
    },
    {
      "inputs": [],
      "name": "stop",
      "outputs": [
        {
          "internalType": "string",
          "name": "",
          "type": "string"
        }
      ],
      "stateMutability": "nonpayable",
      "type": "function"
    },
    {
      "inputs": [
        {
          "internalType": "address",
          "name": "newOwner",
          "type": "address"
        }
      ],
      "name": "transferOwnership",
      "outputs": [],
      "stateMutability": "nonpayable",
      "type": "function"
    },
    {
      "stateMutability": "payable",
      "type": "receive"
    }
  ],
  "bytecode": "0x60806040526000600760146101000a81548160ff0219169083151502179055503480156200002c57600080fd5b506040516200294338038062002943833981810160405281019062000052919062000651565b62000072620000666200038d60201b60201c565b6200039560201b60201c565b60008060146101000a81548160ff021916908360028111156200009a5762000099620006cc565b5b02179055508260059081620000b0919062000946565b5081600660006101000a81548173ffffffffffffffffffffffffffffffffffffffff021916908373ffffffffffffffffffffffffffffffffffffffff16021790555080600760006101000a81548173ffffffffffffffffffffffffffffffffffffffff021916908373ffffffffffffffffffffffffffffffffffffffff160217905550600080600090508073ffffffffffffffffffffffffffffffffffffffff168473ffffffffffffffffffffffffffffffffffffffff1603620001875760056003908162000180919062000a5a565b5062000237565b600660009054906101000a900473ffffffffffffffffffffffffffffffffffffffff1691508173ffffffffffffffffffffffffffffffffffffffff166395d89b416040518163ffffffff1660e01b81526004016000604051808303816000875af1158015620001fa573d6000803e3d6000fd5b505050506040513d6000823e3d601f19601f8201168201806040525081019062000225919062000b5b565b6003908162000235919062000946565b505b8073ffffffffffffffffffffffffffffffffffffffff168373ffffffffffffffffffffffffffffffffffffffff160362000284576005600490816200027d919062000a5a565b5062000334565b600760009054906101000a900473ffffffffffffffffffffffffffffffffffffffff1691508173ffffffffffffffffffffffffffffffffffffffff166395d89b416040518163ffffffff1660e01b81526004016000604051808303816000875af1158015620002f7573d6000803e3d6000fd5b505050506040513d6000823e3d601f19601f8201168201806040525081019062000322919062000b5b565b6004908162000332919062000946565b505b60006002600360405162000349919062000c46565b90815260200160405180910390208190555060006002600460405162000370919062000c46565b908152602001604051809103902081905550505050505062000c5f565b600033905090565b60008060009054906101000a900473ffffffffffffffffffffffffffffffffffffffff169050816000806101000a81548173ffffffffffffffffffffffffffffffffffffffff021916908373ffffffffffffffffffffffffffffffffffffffff1602179055508173ffffffffffffffffffffffffffffffffffffffff168173ffffffffffffffffffffffffffffffffffffffff167f8be0079c531659141344cd1fd0a4f28419497f9722a3daafe3b4186f6b6457e060405160405180910390a35050565b6000604051905090565b600080fd5b600080fd5b600080fd5b600080fd5b6000601f19601f8301169050919050565b7f4e487b7100000000000000000000000000000000000000000000000000000000600052604160045260246000fd5b620004c28262000477565b810181811067ffffffffffffffff82111715620004e457620004e362000488565b5b80604052505050565b6000620004f962000459565b9050620005078282620004b7565b919050565b600067ffffffffffffffff8211156200052a576200052962000488565b5b620005358262000477565b9050602081019050919050565b60005b838110156200056257808201518184015260208101905062000545565b60008484015250505050565b6000620005856200057f846200050c565b620004ed565b905082815260208101848484011115620005a457620005a362000472565b5b620005b184828562000542565b509392505050565b600082601f830112620005d157620005d06200046d565b5b8151620005e38482602086016200056e565b91505092915050565b600073ffffffffffffffffffffffffffffffffffffffff82169050919050565b60006200061982620005ec565b9050919050565b6200062b816200060c565b81146200063757600080fd5b50565b6000815190506200064b8162000620565b92915050565b6000806000606084860312156200066d576200066c62000463565b5b600084015167ffffffffffffffff8111156200068e576200068d62000468565b5b6200069c86828701620005b9565b9350506020620006af868287016200063a565b9250506040620006c2868287016200063a565b9150509250925092565b7f4e487b7100000000000000000000000000000000000000000000000000000000600052602160045260246000fd5b600081519050919050565b7f4e487b7100000000000000000000000000000000000000000000000000000000600052602260045260246000fd5b600060028204905060018216806200074e57607f821691505b60208210810362000764576200076362000706565b5b50919050565b60008190508160005260206000209050919050565b60006020601f8301049050919050565b600082821b905092915050565b600060088302620007ce7fffffffffffffffffffffffffffffffffffffffffffffffffffffffffffffffff826200078f565b620007da86836200078f565b95508019841693508086168417925050509392505050565b6000819050919050565b6000819050919050565b600062000827620008216200081b84620007f2565b620007fc565b620007f2565b9050919050565b6000819050919050565b620008438362000806565b6200085b62000852826200082e565b8484546200079c565b825550505050565b600090565b6200087262000863565b6200087f81848462000838565b505050565b5b81811015620008a7576200089b60008262000868565b60018101905062000885565b5050565b601f821115620008f657620008c0816200076a565b620008cb846200077f565b81016020851015620008db578190505b620008f3620008ea856200077f565b83018262000884565b50505b505050565b600082821c905092915050565b60006200091b60001984600802620008fb565b1980831691505092915050565b600062000936838362000908565b9150826002028217905092915050565b6200095182620006fb565b67ffffffffffffffff8111156200096d576200096c62000488565b5b62000979825462000735565b62000986828285620008ab565b600060209050601f831160018114620009be5760008415620009a9578287015190505b620009b5858262000928565b86555062000a25565b601f198416620009ce866200076a565b60005b82811015620009f857848901518255600182019150602085019450602081019050620009d1565b8683101562000a18578489015162000a14601f89168262000908565b8355505b6001600288020188555050505b505050505050565b60008154905062000a3e8162000735565b9050919050565b60008190508160005260206000209050919050565b81810362000a6a57505062000b59565b62000a758262000a2d565b67ffffffffffffffff81111562000a915762000a9062000488565b5b62000a9d825462000735565b62000aaa828285620008ab565b6000601f83116001811462000ade576000841562000ac9578287015490505b62000ad5858262000928565b86555062000b52565b601f19841662000aee8762000a45565b965062000afb866200076a565b60005b8281101562000b255784890154825560018201915060018501945060208101905062000afe565b8683101562000b45578489015462000b41601f89168262000908565b8355505b6001600288020188555050505b5050505050505b565b60006020828403121562000b745762000b7362000463565b5b600082015167ffffffffffffffff81111562000b955762000b9462000468565b5b62000ba384828501620005b9565b91505092915050565b600081905092915050565b6000815462000bc68162000735565b62000bd2818662000bac565b9450600182166000811462000bf0576001811462000c065762000c3d565b60ff198316865281151582028601935062000c3d565b62000c11856200076a565b60005b8381101562000c355781548189015260018201915060208101905062000c14565b838801955050505b50505092915050565b600062000c54828462000bb7565b915081905092915050565b611cd48062000c6f6000396000f3fe6080604052600436106100955760003560e01c80638da5cb5b116100595780638da5cb5b1461039a578063b69ef8a8146103c5578063be9a6555146103f0578063f1215d251461041b578063f2fde38b1461044b576102ad565b806307da68f5146102b257806309e69ede146102dd578063388e00691461031b5780634e71d92d14610358578063715018a614610383576102ad565b366102ad5760056040516100a9919061105e565b604051809103902060036040516100c0919061105e565b604051809103902014806100ff575060056040516100de919061105e565b604051809103902060046040516100f5919061105e565b6040518091039020145b61013e576040517f08c379a0000000000000000000000000000000000000000000000000000000008152600401610135906110f8565b60405180910390fd5b600560405161014d919061105e565b60405180910390206003604051610164919061105e565b6040518091039020036101ac57346002600360405161018391906111bb565b908152602001604051809103902060008282546101a0919061120b565b92505081905550610217565b60056040516101bb919061105e565b604051809103902060046040516101d2919061105e565b6040518091039020036102165734600260046040516101f191906111bb565b9081526020016040518091039020600082825461020e919061120b565b925050819055505b5b6102ab6005805461022790610f8a565b80601f016020809104026020016040519081016040528092919081815260200182805461025390610f8a565b80156102a05780601f10610275576101008083540402835291602001916102a0565b820191906000526020600020905b81548152906001019060200180831161028357829003601f168201915b505050505034610474565b005b600080fd5b3480156102be57600080fd5b506102c7610649565b6040516102d491906112be565b60405180910390f35b3480156102e957600080fd5b5061030460048036038101906102ff9190611352565b61072f565b60405161031292919061138e565b60405180910390f35b34801561032757600080fd5b50610342600480360381019061033d91906114f3565b6107db565b60405161034f919061153c565b60405180910390f35b34801561036457600080fd5b5061036d610809565b60405161037a9190611572565b60405180910390f35b34801561038f57600080fd5b50610398610a02565b005b3480156103a657600080fd5b506103af610a16565b6040516103bc919061159c565b60405180910390f35b3480156103d157600080fd5b506103da610a3f565b6040516103e7919061153c565b60405180910390f35b3480156103fc57600080fd5b50610405610a47565b60405161041291906112be565b60405180910390f35b61043560048036038101906104309190611643565b610b2d565b6040516104429190611572565b60405180910390f35b34801561045757600080fd5b50610472600480360381019061046d9190611352565b610d8e565b005b6000600160003373ffffffffffffffffffffffffffffffffffffffff1673ffffffffffffffffffffffffffffffffffffffff168152602001908152602001600020604051806040016040529081600082015481526020016001820180546104da90610f8a565b80601f016020809104026020016040519081016040528092919081815260200182805461050690610f8a565b80156105535780601f1061052857610100808354040283529160200191610553565b820191906000526020600020905b81548152906001019060200180831161053657829003601f168201915b50505050508152505090508280519060200120816020015180519060200120036105b2576040517f08c379a00000000000000000000000000000000000000000000000000000000081526004016105a990611715565b60405180910390fd5b81816000018181516105c4919061120b565b91508181525050828160200181905250816002846040516105e59190611766565b90815260200160405180910390206000828254610602919061120b565b925050819055507fd68606c673aecac7ce24ec44fd7d77b401356dfd76fe9b36cb58e579c4220aed82423360405161063c9392919061177d565b60405180910390a1505050565b6060610653610e11565b60016002811115610667576106666117b4565b5b600060149054906101000a900460ff166002811115610689576106886117b4565b5b146106c9576040517f08c379a00000000000000000000000000000000000000000000000000000000081526004016106c090611855565b60405180910390fd5b6002600060146101000a81548160ff021916908360028111156106ef576106ee6117b4565b5b02179055506040518060400160405280601081526020017f73747261746567792073746f7070656400000000000000000000000000000000815250905090565b600160205280600052604060002060009150905080600001549080600101805461075890610f8a565b80601f016020809104026020016040519081016040528092919081815260200182805461078490610f8a565b80156107d15780601f106107a6576101008083540402835291602001916107d1565b820191906000526020600020905b8154815290600101906020018083116107b457829003601f168201915b5050505050905082565b6002818051602081018201805184825260208301602085012081835280955050505050506000915090505481565b600060028081111561081e5761081d6117b4565b5b600060149054906101000a900460ff1660028111156108405761083f6117b4565b5b14610880576040517f08c379a0000000000000000000000000000000000000000000000000000000008152600401610877906118e7565b60405180910390fd5b600760149054906101000a900460ff16156108d0576040517f08c379a00000000000000000000000000000000000000000000000000000000081526004016108c790611953565b60405180910390fd5b6001600760146101000a81548160ff0219169083151502179055506000600160003373ffffffffffffffffffffffffffffffffffffffff1673ffffffffffffffffffffffffffffffffffffffff168152602001908152602001600020905060008160000154905060003373ffffffffffffffffffffffffffffffffffffffff168260405161095d90611999565b60006040518083038185875af1925050503d806000811461099a576040519150601f19603f3d011682016040523d82523d6000602084013e61099f565b606091505b505090506000600760146101000a81548160ff0219169083151502179055507fd79254e5daba749baa8ba954e77bbbb18efef113a8070d00df9a188d819324268242336040516109f19392919061177d565b60405180910390a180935050505090565b610a0a610e11565b610a146000610e8f565b565b60008060009054906101000a900473ffffffffffffffffffffffffffffffffffffffff16905090565b600047905090565b6060610a51610e11565b60006002811115610a6557610a646117b4565b5b600060149054906101000a900460ff166002811115610a8757610a866117b4565b5b14610ac7576040517f08c379a0000000000000000000000000000000000000000000000000000000008152600401610abe90611a46565b60405180910390fd5b6001600060146101000a81548160ff02191690836002811115610aed57610aec6117b4565b5b02179055506040518060400160405280601081526020017f7374726174656779207374617274656400000000000000000000000000000000815250905090565b6000806002811115610b4257610b416117b4565b5b600060149054906101000a900460ff166002811115610b6457610b636117b4565b5b14610ba4576040517f08c379a0000000000000000000000000000000000000000000000000000000008152600401610b9b90611a46565b60405180910390fd5b6003604051610bb3919061105e565b60405180910390208383604051610bcb929190611a8b565b60405180910390201480610c0b57506004604051610be9919061105e565b60405180910390208383604051610c01929190611a8b565b6040518091039020145b610c4a576040517f08c379a0000000000000000000000000000000000000000000000000000000008152600401610c4190611af0565b60405180910390fd5b6000600760009054906101000a900473ffffffffffffffffffffffffffffffffffffffff1690506005604051610c80919061105e565b60405180910390208484604051610c98929190611a8b565b604051809103902014610d815760008173ffffffffffffffffffffffffffffffffffffffff166323b872dd3330896040518463ffffffff1660e01b8152600401610ce493929190611b10565b6020604051808303816000875af1158015610d03573d6000803e3d6000fd5b505050506040513d601f19601f82011682018060405250810190610d279190611b73565b9050610d7785858080601f016020809104026020016040519081016040528093929190818152602001838380828437600081840152601f19601f8201169050808301925050505050505087610474565b8092505050610d87565b60009150505b9392505050565b610d96610e11565b600073ffffffffffffffffffffffffffffffffffffffff168173ffffffffffffffffffffffffffffffffffffffff1603610e05576040517f08c379a0000000000000000000000000000000000000000000000000000000008152600401610dfc90611c12565b60405180910390fd5b610e0e81610e8f565b50565b610e19610f53565b73ffffffffffffffffffffffffffffffffffffffff16610e37610a16565b73ffffffffffffffffffffffffffffffffffffffff1614610e8d576040517f08c379a0000000000000000000000000000000000000000000000000000000008152600401610e8490611c7e565b60405180910390fd5b565b60008060009054906101000a900473ffffffffffffffffffffffffffffffffffffffff169050816000806101000a81548173ffffffffffffffffffffffffffffffffffffffff021916908373ffffffffffffffffffffffffffffffffffffffff1602179055508173ffffffffffffffffffffffffffffffffffffffff168173ffffffffffffffffffffffffffffffffffffffff167f8be0079c531659141344cd1fd0a4f28419497f9722a3daafe3b4186f6b6457e060405160405180910390a35050565b600033905090565b7f4e487b7100000000000000000000000000000000000000000000000000000000600052602260045260246000fd5b60006002820490506001821680610fa257607f821691505b602082108103610fb557610fb4610f5b565b5b50919050565b600081905092915050565b60008190508160005260206000209050919050565b60008154610fe881610f8a565b610ff28186610fbb565b9450600182166000811461100d576001811461102257611055565b60ff1983168652811515820286019350611055565b61102b85610fc6565b60005b8381101561104d5781548189015260018201915060208101905061102e565b838801955050505b50505092915050565b600061106a8284610fdb565b915081905092915050565b600082825260208201905092915050565b7f4e6f6e65206f6620746865207061697273206163636570742061206e6174697660008201527f6520746f6b656e00000000000000000000000000000000000000000000000000602082015250565b60006110e2602783611075565b91506110ed82611086565b604082019050919050565b60006020820190508181036000830152611111816110d5565b9050919050565b600081905092915050565b60008190508160005260206000209050919050565b6000815461114581610f8a565b61114f8186611118565b9450600182166000811461116a576001811461117f576111b2565b60ff19831686528115158202860193506111b2565b61118885611123565b60005b838110156111aa5781548189015260018201915060208101905061118b565b838801955050505b50505092915050565b60006111c78284611138565b915081905092915050565b6000819050919050565b7f4e487b7100000000000000000000000000000000000000000000000000000000600052601160045260246000fd5b6000611216826111d2565b9150611221836111d2565b9250828201905080821115611239576112386111dc565b5b92915050565b600081519050919050565b60005b8381101561126857808201518184015260208101905061124d565b60008484015250505050565b6000601f19601f8301169050919050565b60006112908261123f565b61129a8185611075565b93506112aa81856020860161124a565b6112b381611274565b840191505092915050565b600060208201905081810360008301526112d88184611285565b905092915050565b6000604051905090565b600080fd5b600080fd5b600073ffffffffffffffffffffffffffffffffffffffff82169050919050565b600061131f826112f4565b9050919050565b61132f81611314565b811461133a57600080fd5b50565b60008135905061134c81611326565b92915050565b600060208284031215611368576113676112ea565b5b60006113768482850161133d565b91505092915050565b611388816111d2565b82525050565b60006040820190506113a3600083018561137f565b81810360208301526113b58184611285565b90509392505050565b600080fd5b600080fd5b7f4e487b7100000000000000000000000000000000000000000000000000000000600052604160045260246000fd5b61140082611274565b810181811067ffffffffffffffff8211171561141f5761141e6113c8565b5b80604052505050565b60006114326112e0565b905061143e82826113f7565b919050565b600067ffffffffffffffff82111561145e5761145d6113c8565b5b61146782611274565b9050602081019050919050565b82818337600083830152505050565b600061149661149184611443565b611428565b9050828152602081018484840111156114b2576114b16113c3565b5b6114bd848285611474565b509392505050565b600082601f8301126114da576114d96113be565b5b81356114ea848260208601611483565b91505092915050565b600060208284031215611509576115086112ea565b5b600082013567ffffffffffffffff811115611527576115266112ef565b5b611533848285016114c5565b91505092915050565b6000602082019050611551600083018461137f565b92915050565b60008115159050919050565b61156c81611557565b82525050565b60006020820190506115876000830184611563565b92915050565b61159681611314565b82525050565b60006020820190506115b1600083018461158d565b92915050565b6115c0816111d2565b81146115cb57600080fd5b50565b6000813590506115dd816115b7565b92915050565b600080fd5b600080fd5b60008083601f840112611603576116026113be565b5b8235905067ffffffffffffffff8111156116205761161f6115e3565b5b60208301915083600182028301111561163c5761163b6115e8565b5b9250929050565b60008060006040848603121561165c5761165b6112ea565b5b600061166a868287016115ce565b935050602084013567ffffffffffffffff81111561168b5761168a6112ef565b5b611697868287016115ed565b92509250509250925092565b7f5061727469636970616e7420616c726561647920686173206120746f6b656e2060008201527f6c6f636b65640000000000000000000000000000000000000000000000000000602082015250565b60006116ff602683611075565b915061170a826116a3565b604082019050919050565b6000602082019050818103600083015261172e816116f2565b9050919050565b60006117408261123f565b61174a8185611118565b935061175a81856020860161124a565b80840191505092915050565b60006117728284611735565b915081905092915050565b6000606082019050611792600083018661137f565b61179f602083018561137f565b6117ac604083018461158d565b949350505050565b7f4e487b7100000000000000000000000000000000000000000000000000000000600052602160045260246000fd5b7f4f7065726174696f6e2063616e206f6e6c7920626520706572666f726d65642060008201527f7768656e2053747261746567792069732052756e6e696e670000000000000000602082015250565b600061183f603883611075565b915061184a826117e3565b604082019050919050565b6000602082019050818103600083015261186e81611832565b9050919050565b7f5374726174656779206d75737420657870697265206265666f72652072756e6e60008201527f696e672074686973206f7065726174696f6e2e00000000000000000000000000602082015250565b60006118d1603383611075565b91506118dc82611875565b604082019050919050565b60006020820190508181036000830152611900816118c4565b9050919050565b7f5265656e7472616e742063616c6c206465746563746564210000000000000000600082015250565b600061193d601883611075565b915061194882611907565b602082019050919050565b6000602082019050818103600083015261196c81611930565b9050919050565b50565b6000611983600083610fbb565b915061198e82611973565b600082019050919050565b60006119a482611976565b9150819050919050565b7f4f7065726174696f6e2063616e206f6e6c7920626520706572666f726d65642060008201527f7768656e20537472617465677920697320696e2050656e64696e67205374617460208201527f6500000000000000000000000000000000000000000000000000000000000000604082015250565b6000611a30604183611075565b9150611a3b826119ae565b606082019050919050565b60006020820190508181036000830152611a5f81611a23565b9050919050565b6000611a728385610fbb565b9350611a7f838584611474565b82840190509392505050565b6000611a98828486611a66565b91508190509392505050565b7f57726f6e6720746f6b656e2073656e742e000000000000000000000000000000600082015250565b6000611ada601183611075565b9150611ae582611aa4565b602082019050919050565b60006020820190508181036000830152611b0981611acd565b9050919050565b6000606082019050611b25600083018661158d565b611b32602083018561158d565b611b3f604083018461137f565b949350505050565b611b5081611557565b8114611b5b57600080fd5b50565b600081519050611b6d81611b47565b92915050565b600060208284031215611b8957611b886112ea565b5b6000611b9784828501611b5e565b91505092915050565b7f4f776e61626c653a206e6577206f776e657220697320746865207a65726f206160008201527f6464726573730000000000000000000000000000000000000000000000000000602082015250565b6000611bfc602683611075565b9150611c0782611ba0565b604082019050919050565b60006020820190508181036000830152611c2b81611bef565b9050919050565b7f4f776e61626c653a2063616c6c6572206973206e6f7420746865206f776e6572600082015250565b6000611c68602083611075565b9150611c7382611c32565b602082019050919050565b60006020820190508181036000830152611c9781611c5b565b905091905056fea26469706673582212208fa5ea4c3e6df2bb8b26367fae5e052c2e03829cc8aea0373abb52068b85f5d064736f6c63430008110033",
  "linkReferences": {},
  "deployedLinkReferences": {}
}